{
  "contractName": "NFT",
  "abi": [
    {
      "inputs": [
        {
          "internalType": "address",
          "name": "_marketplaceContract",
          "type": "address"
        }
      ],
      "stateMutability": "nonpayable",
      "type": "constructor"
    },
    {
      "inputs": [
        {
          "internalType": "address",
          "name": "sender",
          "type": "address"
        },
        {
          "internalType": "uint256",
          "name": "tokenId",
          "type": "uint256"
        },
        {
          "internalType": "address",
          "name": "owner",
          "type": "address"
        }
      ],
      "name": "ERC721IncorrectOwner",
      "type": "error"
    },
    {
      "inputs": [
        {
          "internalType": "address",
          "name": "operator",
          "type": "address"
        },
        {
          "internalType": "uint256",
          "name": "tokenId",
          "type": "uint256"
        }
      ],
      "name": "ERC721InsufficientApproval",
      "type": "error"
    },
    {
      "inputs": [
        {
          "internalType": "address",
          "name": "approver",
          "type": "address"
        }
      ],
      "name": "ERC721InvalidApprover",
      "type": "error"
    },
    {
      "inputs": [
        {
          "internalType": "address",
          "name": "operator",
          "type": "address"
        }
      ],
      "name": "ERC721InvalidOperator",
      "type": "error"
    },
    {
      "inputs": [
        {
          "internalType": "address",
          "name": "owner",
          "type": "address"
        }
      ],
      "name": "ERC721InvalidOwner",
      "type": "error"
    },
    {
      "inputs": [
        {
          "internalType": "address",
          "name": "receiver",
          "type": "address"
        }
      ],
      "name": "ERC721InvalidReceiver",
      "type": "error"
    },
    {
      "inputs": [
        {
          "internalType": "address",
          "name": "sender",
          "type": "address"
        }
      ],
      "name": "ERC721InvalidSender",
      "type": "error"
    },
    {
      "inputs": [
        {
          "internalType": "uint256",
          "name": "tokenId",
          "type": "uint256"
        }
      ],
      "name": "ERC721NonexistentToken",
      "type": "error"
    },
    {
      "anonymous": false,
      "inputs": [
        {
          "indexed": true,
          "internalType": "address",
          "name": "owner",
          "type": "address"
        },
        {
          "indexed": true,
          "internalType": "address",
          "name": "approved",
          "type": "address"
        },
        {
          "indexed": true,
          "internalType": "uint256",
          "name": "tokenId",
          "type": "uint256"
        }
      ],
      "name": "Approval",
      "type": "event"
    },
    {
      "anonymous": false,
      "inputs": [
        {
          "indexed": true,
          "internalType": "address",
          "name": "owner",
          "type": "address"
        },
        {
          "indexed": true,
          "internalType": "address",
          "name": "operator",
          "type": "address"
        },
        {
          "indexed": false,
          "internalType": "bool",
          "name": "approved",
          "type": "bool"
        }
      ],
      "name": "ApprovalForAll",
      "type": "event"
    },
    {
      "anonymous": false,
      "inputs": [
        {
          "indexed": false,
          "internalType": "uint256",
          "name": "_fromTokenId",
          "type": "uint256"
        },
        {
          "indexed": false,
          "internalType": "uint256",
          "name": "_toTokenId",
          "type": "uint256"
        }
      ],
      "name": "BatchMetadataUpdate",
      "type": "event"
    },
    {
      "anonymous": false,
      "inputs": [
        {
          "indexed": false,
          "internalType": "uint256",
          "name": "_tokenId",
          "type": "uint256"
        }
      ],
      "name": "MetadataUpdate",
      "type": "event"
    },
    {
      "anonymous": false,
      "inputs": [
        {
          "indexed": false,
          "internalType": "uint256",
          "name": "",
          "type": "uint256"
        }
      ],
      "name": "NFTMinted",
      "type": "event"
    },
    {
      "anonymous": false,
      "inputs": [
        {
          "indexed": true,
          "internalType": "address",
          "name": "from",
          "type": "address"
        },
        {
          "indexed": true,
          "internalType": "address",
          "name": "to",
          "type": "address"
        },
        {
          "indexed": true,
          "internalType": "uint256",
          "name": "tokenId",
          "type": "uint256"
        }
      ],
      "name": "Transfer",
      "type": "event"
    },
    {
      "inputs": [],
      "name": "_currentTokenId",
      "outputs": [
        {
          "internalType": "uint256",
          "name": "",
          "type": "uint256"
        }
      ],
      "stateMutability": "view",
      "type": "function"
    },
    {
      "inputs": [
        {
          "internalType": "address",
          "name": "to",
          "type": "address"
        },
        {
          "internalType": "uint256",
          "name": "tokenId",
          "type": "uint256"
        }
      ],
      "name": "approve",
      "outputs": [],
      "stateMutability": "nonpayable",
      "type": "function"
    },
    {
      "inputs": [
        {
          "internalType": "address",
          "name": "owner",
          "type": "address"
        }
      ],
      "name": "balanceOf",
      "outputs": [
        {
          "internalType": "uint256",
          "name": "",
          "type": "uint256"
        }
      ],
      "stateMutability": "view",
      "type": "function"
    },
    {
      "inputs": [
        {
          "internalType": "uint256",
          "name": "tokenId",
          "type": "uint256"
        }
      ],
      "name": "getApproved",
      "outputs": [
        {
          "internalType": "address",
          "name": "",
          "type": "address"
        }
      ],
      "stateMutability": "view",
      "type": "function"
    },
    {
      "inputs": [
        {
          "internalType": "address",
          "name": "owner",
          "type": "address"
        },
        {
          "internalType": "address",
          "name": "operator",
          "type": "address"
        }
      ],
      "name": "isApprovedForAll",
      "outputs": [
        {
          "internalType": "bool",
          "name": "",
          "type": "bool"
        }
      ],
      "stateMutability": "view",
      "type": "function"
    },
    {
      "inputs": [],
      "name": "name",
      "outputs": [
        {
          "internalType": "string",
          "name": "",
          "type": "string"
        }
      ],
      "stateMutability": "view",
      "type": "function"
    },
    {
      "inputs": [
        {
          "internalType": "uint256",
          "name": "tokenId",
          "type": "uint256"
        }
      ],
      "name": "ownerOf",
      "outputs": [
        {
          "internalType": "address",
          "name": "",
          "type": "address"
        }
      ],
      "stateMutability": "view",
      "type": "function"
    },
    {
      "inputs": [
        {
          "internalType": "address",
          "name": "from",
          "type": "address"
        },
        {
          "internalType": "address",
          "name": "to",
          "type": "address"
        },
        {
          "internalType": "uint256",
          "name": "tokenId",
          "type": "uint256"
        }
      ],
      "name": "safeTransferFrom",
      "outputs": [],
      "stateMutability": "nonpayable",
      "type": "function"
    },
    {
      "inputs": [
        {
          "internalType": "address",
          "name": "from",
          "type": "address"
        },
        {
          "internalType": "address",
          "name": "to",
          "type": "address"
        },
        {
          "internalType": "uint256",
          "name": "tokenId",
          "type": "uint256"
        },
        {
          "internalType": "bytes",
          "name": "data",
          "type": "bytes"
        }
      ],
      "name": "safeTransferFrom",
      "outputs": [],
      "stateMutability": "nonpayable",
      "type": "function"
    },
    {
      "inputs": [
        {
          "internalType": "address",
          "name": "operator",
          "type": "address"
        },
        {
          "internalType": "bool",
          "name": "approved",
          "type": "bool"
        }
      ],
      "name": "setApprovalForAll",
      "outputs": [],
      "stateMutability": "nonpayable",
      "type": "function"
    },
    {
      "inputs": [
        {
          "internalType": "bytes4",
          "name": "interfaceId",
          "type": "bytes4"
        }
      ],
      "name": "supportsInterface",
      "outputs": [
        {
          "internalType": "bool",
          "name": "",
          "type": "bool"
        }
      ],
      "stateMutability": "view",
      "type": "function"
    },
    {
      "inputs": [],
      "name": "symbol",
      "outputs": [
        {
          "internalType": "string",
          "name": "",
          "type": "string"
        }
      ],
      "stateMutability": "view",
      "type": "function"
    },
    {
      "inputs": [
        {
          "internalType": "uint256",
          "name": "tokenId",
          "type": "uint256"
        }
      ],
      "name": "tokenURI",
      "outputs": [
        {
          "internalType": "string",
          "name": "",
          "type": "string"
        }
      ],
      "stateMutability": "view",
      "type": "function"
    },
    {
      "inputs": [
        {
          "internalType": "address",
          "name": "from",
          "type": "address"
        },
        {
          "internalType": "address",
          "name": "to",
          "type": "address"
        },
        {
          "internalType": "uint256",
          "name": "tokenId",
          "type": "uint256"
        }
      ],
      "name": "transferFrom",
      "outputs": [],
      "stateMutability": "nonpayable",
      "type": "function"
    },
    {
      "inputs": [
        {
          "internalType": "string",
          "name": "_tokenURI",
          "type": "string"
        }
      ],
      "name": "mint",
      "outputs": [],
      "stateMutability": "nonpayable",
      "type": "function"
    },
    {
      "inputs": [],
      "name": "getCurrentToken",
      "outputs": [
        {
          "internalType": "uint256",
          "name": "",
          "type": "uint256"
        }
      ],
      "stateMutability": "view",
      "type": "function"
    }
  ],
  "bytecode": "0x60806040525f60075534801562000014575f80fd5b50604051620028ba380380620028ba83398181016040528101906200003a919062000177565b6040518060400160405280600681526020017f5365636b696d00000000000000000000000000000000000000000000000000008152506040518060400160405280600481526020017f4d544b4e00000000000000000000000000000000000000000000000000000000815250815f9081620000b691906200040b565b508060019081620000c891906200040b565b5050508060085f6101000a81548173ffffffffffffffffffffffffffffffffffffffff021916908373ffffffffffffffffffffffffffffffffffffffff16021790555050620004ef565b5f80fd5b5f73ffffffffffffffffffffffffffffffffffffffff82169050919050565b5f620001418262000116565b9050919050565b620001538162000135565b81146200015e575f80fd5b50565b5f81519050620001718162000148565b92915050565b5f602082840312156200018f576200018e62000112565b5b5f6200019e8482850162000161565b91505092915050565b5f81519050919050565b7f4e487b71000000000000000000000000000000000000000000000000000000005f52604160045260245ffd5b7f4e487b71000000000000000000000000000000000000000000000000000000005f52602260045260245ffd5b5f60028204905060018216806200022357607f821691505b602082108103620002395762000238620001de565b5b50919050565b5f819050815f5260205f209050919050565b5f6020601f8301049050919050565b5f82821b905092915050565b5f600883026200029d7fffffffffffffffffffffffffffffffffffffffffffffffffffffffffffffffff8262000260565b620002a9868362000260565b95508019841693508086168417925050509392505050565b5f819050919050565b5f819050919050565b5f620002f3620002ed620002e784620002c1565b620002ca565b620002c1565b9050919050565b5f819050919050565b6200030e83620002d3565b620003266200031d82620002fa565b8484546200026c565b825550505050565b5f90565b6200033c6200032e565b6200034981848462000303565b505050565b5b818110156200037057620003645f8262000332565b6001810190506200034f565b5050565b601f821115620003bf5762000389816200023f565b620003948462000251565b81016020851015620003a4578190505b620003bc620003b38562000251565b8301826200034e565b50505b505050565b5f82821c905092915050565b5f620003e15f1984600802620003c4565b1980831691505092915050565b5f620003fb8383620003d0565b9150826002028217905092915050565b6200041682620001a7565b67ffffffffffffffff811115620004325762000431620001b1565b5b6200043e82546200020b565b6200044b82828562000374565b5f60209050601f83116001811462000481575f84156200046c578287015190505b620004788582620003ee565b865550620004e7565b601f19841662000491866200023f565b5f5b82811015620004ba5784890151825560018201915060208501945060208101905062000493565b86831015620004da5784890151620004d6601f891682620003d0565b8355505b6001600288020188555050505b505050505050565b6123bd80620004fd5f395ff3fe608060405234801561000f575f80fd5b50600436106100fe575f3560e01c806395d89b4111610095578063c963483c11610064578063c963483c146102ba578063d85d3d27146102d8578063e985e9c5146102f4578063ef2d174614610324576100fe565b806395d89b4114610234578063a22cb46514610252578063b88d4fde1461026e578063c87b56dd1461028a576100fe565b806323b872dd116100d157806323b872dd1461019c57806342842e0e146101b85780636352211e146101d457806370a0823114610204576100fe565b806301ffc9a71461010257806306fdde0314610132578063081812fc14610150578063095ea7b314610180575b5f80fd5b61011c60048036038101906101179190611889565b610342565b60405161012991906118ce565b60405180910390f35b61013a6103a2565b6040516101479190611971565b60405180910390f35b61016a600480360381019061016591906119c4565b610431565b6040516101779190611a2e565b60405180910390f35b61019a60048036038101906101959190611a71565b61044c565b005b6101b660048036038101906101b19190611aaf565b610462565b005b6101d260048036038101906101cd9190611aaf565b610561565b005b6101ee60048036038101906101e991906119c4565b610580565b6040516101fb9190611a2e565b60405180910390f35b61021e60048036038101906102199190611aff565b610591565b60405161022b9190611b39565b60405180910390f35b61023c610647565b6040516102499190611971565b60405180910390f35b61026c60048036038101906102679190611b7c565b6106d7565b005b61028860048036038101906102839190611ce6565b6106ed565b005b6102a4600480360381019061029f91906119c4565b61070a565b6040516102b19190611971565b60405180910390f35b6102c2610815565b6040516102cf9190611b39565b60405180910390f35b6102f260048036038101906102ed9190611e04565b61081b565b005b61030e60048036038101906103099190611e4b565b6108ad565b60405161031b91906118ce565b60405180910390f35b61032c61093b565b6040516103399190611b39565b60405180910390f35b5f634906490660e01b7bffffffffffffffffffffffffffffffffffffffffffffffffffffffff1916827bffffffffffffffffffffffffffffffffffffffffffffffffffffffff1916148061039b575061039a82610944565b5b9050919050565b60605f80546103b090611eb6565b80601f01602080910402602001604051908101604052809291908181526020018280546103dc90611eb6565b80156104275780601f106103fe57610100808354040283529160200191610427565b820191905f5260205f20905b81548152906001019060200180831161040a57829003601f168201915b5050505050905090565b5f61043b82610a25565b5061044582610aab565b9050919050565b61045e8282610459610ae4565b610aeb565b5050565b5f73ffffffffffffffffffffffffffffffffffffffff168273ffffffffffffffffffffffffffffffffffffffff16036104d2575f6040517f64a0ae920000000000000000000000000000000000000000000000000000000081526004016104c99190611a2e565b60405180910390fd5b5f6104e583836104e0610ae4565b610afd565b90508373ffffffffffffffffffffffffffffffffffffffff168173ffffffffffffffffffffffffffffffffffffffff161461055b578382826040517f64283d7b00000000000000000000000000000000000000000000000000000000815260040161055293929190611ee6565b60405180910390fd5b50505050565b61057b83838360405180602001604052805f8152506106ed565b505050565b5f61058a82610a25565b9050919050565b5f8073ffffffffffffffffffffffffffffffffffffffff168273ffffffffffffffffffffffffffffffffffffffff1603610602575f6040517f89c62b640000000000000000000000000000000000000000000000000000000081526004016105f99190611a2e565b60405180910390fd5b60035f8373ffffffffffffffffffffffffffffffffffffffff1673ffffffffffffffffffffffffffffffffffffffff1681526020019081526020015f20549050919050565b60606001805461065690611eb6565b80601f016020809104026020016040519081016040528092919081815260200182805461068290611eb6565b80156106cd5780601f106106a4576101008083540402835291602001916106cd565b820191905f5260205f20905b8154815290600101906020018083116106b057829003601f168201915b5050505050905090565b6106e96106e2610ae4565b8383610d08565b5050565b6106f8848484610462565b61070484848484610e71565b50505050565b606061071582610a25565b505f60065f8481526020019081526020015f20805461073390611eb6565b80601f016020809104026020016040519081016040528092919081815260200182805461075f90611eb6565b80156107aa5780601f10610781576101008083540402835291602001916107aa565b820191905f5260205f20905b81548152906001019060200180831161078d57829003601f168201915b505050505090505f6107ba611023565b90505f8151036107ce578192505050610810565b5f825111156108025780826040516020016107ea929190611f55565b60405160208183030381529060405292505050610810565b61080b84611039565b925050505b919050565b60075481565b5f60075f815461082a90611fa5565b919050819055905061083c338261109f565b61084681836110bc565b61087260085f9054906101000a900473ffffffffffffffffffffffffffffffffffffffff1660016106d7565b7fd9dc24857f317ed9abbbb42e920ede0104231eb1d3d70236a74887ffaf159868816040516108a19190611b39565b60405180910390a15050565b5f60055f8473ffffffffffffffffffffffffffffffffffffffff1673ffffffffffffffffffffffffffffffffffffffff1681526020019081526020015f205f8373ffffffffffffffffffffffffffffffffffffffff1673ffffffffffffffffffffffffffffffffffffffff1681526020019081526020015f205f9054906101000a900460ff16905092915050565b5f600754905090565b5f7f80ac58cd000000000000000000000000000000000000000000000000000000007bffffffffffffffffffffffffffffffffffffffffffffffffffffffff1916827bffffffffffffffffffffffffffffffffffffffffffffffffffffffff19161480610a0e57507f5b5e139f000000000000000000000000000000000000000000000000000000007bffffffffffffffffffffffffffffffffffffffffffffffffffffffff1916827bffffffffffffffffffffffffffffffffffffffffffffffffffffffff1916145b80610a1e5750610a1d82611116565b5b9050919050565b5f80610a308361117f565b90505f73ffffffffffffffffffffffffffffffffffffffff168173ffffffffffffffffffffffffffffffffffffffff1603610aa257826040517f7e273289000000000000000000000000000000000000000000000000000000008152600401610a999190611b39565b60405180910390fd5b80915050919050565b5f60045f8381526020019081526020015f205f9054906101000a900473ffffffffffffffffffffffffffffffffffffffff169050919050565b5f33905090565b610af883838360016111b8565b505050565b5f80610b088461117f565b90505f73ffffffffffffffffffffffffffffffffffffffff168373ffffffffffffffffffffffffffffffffffffffff1614610b4957610b48818486611377565b5b5f73ffffffffffffffffffffffffffffffffffffffff168173ffffffffffffffffffffffffffffffffffffffff1614610bd457610b885f855f806111b8565b600160035f8373ffffffffffffffffffffffffffffffffffffffff1673ffffffffffffffffffffffffffffffffffffffff1681526020019081526020015f205f82825403925050819055505b5f73ffffffffffffffffffffffffffffffffffffffff168573ffffffffffffffffffffffffffffffffffffffff1614610c5357600160035f8773ffffffffffffffffffffffffffffffffffffffff1673ffffffffffffffffffffffffffffffffffffffff1681526020019081526020015f205f82825401925050819055505b8460025f8681526020019081526020015f205f6101000a81548173ffffffffffffffffffffffffffffffffffffffff021916908373ffffffffffffffffffffffffffffffffffffffff160217905550838573ffffffffffffffffffffffffffffffffffffffff168273ffffffffffffffffffffffffffffffffffffffff167fddf252ad1be2c89b69c2b068fc378daa952ba7f163c4a11628f55a4df523b3ef60405160405180910390a4809150509392505050565b5f73ffffffffffffffffffffffffffffffffffffffff168273ffffffffffffffffffffffffffffffffffffffff1603610d7857816040517f5b08ba18000000000000000000000000000000000000000000000000000000008152600401610d6f9190611a2e565b60405180910390fd5b8060055f8573ffffffffffffffffffffffffffffffffffffffff1673ffffffffffffffffffffffffffffffffffffffff1681526020019081526020015f205f8473ffffffffffffffffffffffffffffffffffffffff1673ffffffffffffffffffffffffffffffffffffffff1681526020019081526020015f205f6101000a81548160ff0219169083151502179055508173ffffffffffffffffffffffffffffffffffffffff168373ffffffffffffffffffffffffffffffffffffffff167f17307eab39ab6107e8899845ad3d59bd9653f200f220920489ca2b5937696c3183604051610e6491906118ce565b60405180910390a3505050565b5f8373ffffffffffffffffffffffffffffffffffffffff163b111561101d578273ffffffffffffffffffffffffffffffffffffffff1663150b7a02610eb4610ae4565b8685856040518563ffffffff1660e01b8152600401610ed6949392919061203e565b6020604051808303815f875af1925050508015610f1157506040513d601f19601f82011682018060405250810190610f0e919061209c565b60015b610f92573d805f8114610f3f576040519150601f19603f3d011682016040523d82523d5f602084013e610f44565b606091505b505f815103610f8a57836040517f64a0ae92000000000000000000000000000000000000000000000000000000008152600401610f819190611a2e565b60405180910390fd5b805181602001fd5b63150b7a0260e01b7bffffffffffffffffffffffffffffffffffffffffffffffffffffffff1916817bffffffffffffffffffffffffffffffffffffffffffffffffffffffff19161461101b57836040517f64a0ae920000000000000000000000000000000000000000000000000000000081526004016110129190611a2e565b60405180910390fd5b505b50505050565b606060405180602001604052805f815250905090565b606061104482610a25565b505f61104e611023565b90505f81511161106c5760405180602001604052805f815250611097565b806110768461143a565b604051602001611087929190611f55565b6040516020818303038152906040525b915050919050565b6110b8828260405180602001604052805f815250611504565b5050565b8060065f8481526020019081526020015f2090816110da9190612264565b507ff8e1a15aba9398e019f0b49df1a4fde98ee17ae345cb5f6b5e2c27f5033e8ce78260405161110a9190611b39565b60405180910390a15050565b5f7f01ffc9a7000000000000000000000000000000000000000000000000000000007bffffffffffffffffffffffffffffffffffffffffffffffffffffffff1916827bffffffffffffffffffffffffffffffffffffffffffffffffffffffff1916149050919050565b5f60025f8381526020019081526020015f205f9054906101000a900473ffffffffffffffffffffffffffffffffffffffff169050919050565b80806111f057505f73ffffffffffffffffffffffffffffffffffffffff168273ffffffffffffffffffffffffffffffffffffffff1614155b15611322575f6111ff84610a25565b90505f73ffffffffffffffffffffffffffffffffffffffff168373ffffffffffffffffffffffffffffffffffffffff161415801561126957508273ffffffffffffffffffffffffffffffffffffffff168173ffffffffffffffffffffffffffffffffffffffff1614155b801561127c575061127a81846108ad565b155b156112be57826040517fa9fbf51f0000000000000000000000000000000000000000000000000000000081526004016112b59190611a2e565b60405180910390fd5b811561132057838573ffffffffffffffffffffffffffffffffffffffff168273ffffffffffffffffffffffffffffffffffffffff167f8c5be1e5ebec7d5bd14f71427d1e84f3dd0314c0f7b2291e5b200ac8c7c3b92560405160405180910390a45b505b8360045f8581526020019081526020015f205f6101000a81548173ffffffffffffffffffffffffffffffffffffffff021916908373ffffffffffffffffffffffffffffffffffffffff16021790555050505050565b61138283838361151f565b611435575f73ffffffffffffffffffffffffffffffffffffffff168373ffffffffffffffffffffffffffffffffffffffff16036113f657806040517f7e2732890000000000000000000000000000000000000000000000000000000081526004016113ed9190611b39565b60405180910390fd5b81816040517f177e802f00000000000000000000000000000000000000000000000000000000815260040161142c929190612333565b60405180910390fd5b505050565b60605f6001611448846115df565b0190505f8167ffffffffffffffff81111561146657611465611bc2565b5b6040519080825280601f01601f1916602001820160405280156114985781602001600182028036833780820191505090505b5090505f82602001820190505b6001156114f9578080600190039150507f3031323334353637383961626364656600000000000000000000000000000000600a86061a8153600a85816114ee576114ed61235a565b5b0494505f85036114a5575b819350505050919050565b61150e8383611730565b61151a5f848484610e71565b505050565b5f8073ffffffffffffffffffffffffffffffffffffffff168373ffffffffffffffffffffffffffffffffffffffff16141580156115d657508273ffffffffffffffffffffffffffffffffffffffff168473ffffffffffffffffffffffffffffffffffffffff161480611597575061159684846108ad565b5b806115d557508273ffffffffffffffffffffffffffffffffffffffff166115bd83610aab565b73ffffffffffffffffffffffffffffffffffffffff16145b5b90509392505050565b5f805f90507a184f03e93ff9f4daa797ed6e38ed64bf6a1f010000000000000000831061163b577a184f03e93ff9f4daa797ed6e38ed64bf6a1f01000000000000000083816116315761163061235a565b5b0492506040810190505b6d04ee2d6d415b85acef81000000008310611678576d04ee2d6d415b85acef8100000000838161166e5761166d61235a565b5b0492506020810190505b662386f26fc1000083106116a757662386f26fc10000838161169d5761169c61235a565b5b0492506010810190505b6305f5e10083106116d0576305f5e10083816116c6576116c561235a565b5b0492506008810190505b61271083106116f55761271083816116eb576116ea61235a565b5b0492506004810190505b60648310611718576064838161170e5761170d61235a565b5b0492506002810190505b600a8310611727576001810190505b80915050919050565b5f73ffffffffffffffffffffffffffffffffffffffff168273ffffffffffffffffffffffffffffffffffffffff16036117a0575f6040517f64a0ae920000000000000000000000000000000000000000000000000000000081526004016117979190611a2e565b60405180910390fd5b5f6117ac83835f610afd565b90505f73ffffffffffffffffffffffffffffffffffffffff168173ffffffffffffffffffffffffffffffffffffffff161461181e575f6040517f73c6ac6e0000000000000000000000000000000000000000000000000000000081526004016118159190611a2e565b60405180910390fd5b505050565b5f604051905090565b5f80fd5b5f80fd5b5f7fffffffff0000000000000000000000000000000000000000000000000000000082169050919050565b61186881611834565b8114611872575f80fd5b50565b5f813590506118838161185f565b92915050565b5f6020828403121561189e5761189d61182c565b5b5f6118ab84828501611875565b91505092915050565b5f8115159050919050565b6118c8816118b4565b82525050565b5f6020820190506118e15f8301846118bf565b92915050565b5f81519050919050565b5f82825260208201905092915050565b5f5b8381101561191e578082015181840152602081019050611903565b5f8484015250505050565b5f601f19601f8301169050919050565b5f611943826118e7565b61194d81856118f1565b935061195d818560208601611901565b61196681611929565b840191505092915050565b5f6020820190508181035f8301526119898184611939565b905092915050565b5f819050919050565b6119a381611991565b81146119ad575f80fd5b50565b5f813590506119be8161199a565b92915050565b5f602082840312156119d9576119d861182c565b5b5f6119e6848285016119b0565b91505092915050565b5f73ffffffffffffffffffffffffffffffffffffffff82169050919050565b5f611a18826119ef565b9050919050565b611a2881611a0e565b82525050565b5f602082019050611a415f830184611a1f565b92915050565b611a5081611a0e565b8114611a5a575f80fd5b50565b5f81359050611a6b81611a47565b92915050565b5f8060408385031215611a8757611a8661182c565b5b5f611a9485828601611a5d565b9250506020611aa5858286016119b0565b9150509250929050565b5f805f60608486031215611ac657611ac561182c565b5b5f611ad386828701611a5d565b9350506020611ae486828701611a5d565b9250506040611af5868287016119b0565b9150509250925092565b5f60208284031215611b1457611b1361182c565b5b5f611b2184828501611a5d565b91505092915050565b611b3381611991565b82525050565b5f602082019050611b4c5f830184611b2a565b92915050565b611b5b816118b4565b8114611b65575f80fd5b50565b5f81359050611b7681611b52565b92915050565b5f8060408385031215611b9257611b9161182c565b5b5f611b9f85828601611a5d565b9250506020611bb085828601611b68565b9150509250929050565b5f80fd5b5f80fd5b7f4e487b71000000000000000000000000000000000000000000000000000000005f52604160045260245ffd5b611bf882611929565b810181811067ffffffffffffffff82111715611c1757611c16611bc2565b5b80604052505050565b5f611c29611823565b9050611c358282611bef565b919050565b5f67ffffffffffffffff821115611c5457611c53611bc2565b5b611c5d82611929565b9050602081019050919050565b828183375f83830152505050565b5f611c8a611c8584611c3a565b611c20565b905082815260208101848484011115611ca657611ca5611bbe565b5b611cb1848285611c6a565b509392505050565b5f82601f830112611ccd57611ccc611bba565b5b8135611cdd848260208601611c78565b91505092915050565b5f805f8060808587031215611cfe57611cfd61182c565b5b5f611d0b87828801611a5d565b9450506020611d1c87828801611a5d565b9350506040611d2d878288016119b0565b925050606085013567ffffffffffffffff811115611d4e57611d4d611830565b5b611d5a87828801611cb9565b91505092959194509250565b5f67ffffffffffffffff821115611d8057611d7f611bc2565b5b611d8982611929565b9050602081019050919050565b5f611da8611da384611d66565b611c20565b905082815260208101848484011115611dc457611dc3611bbe565b5b611dcf848285611c6a565b509392505050565b5f82601f830112611deb57611dea611bba565b5b8135611dfb848260208601611d96565b91505092915050565b5f60208284031215611e1957611e1861182c565b5b5f82013567ffffffffffffffff811115611e3657611e35611830565b5b611e4284828501611dd7565b91505092915050565b5f8060408385031215611e6157611e6061182c565b5b5f611e6e85828601611a5d565b9250506020611e7f85828601611a5d565b9150509250929050565b7f4e487b71000000000000000000000000000000000000000000000000000000005f52602260045260245ffd5b5f6002820490506001821680611ecd57607f821691505b602082108103611ee057611edf611e89565b5b50919050565b5f606082019050611ef95f830186611a1f565b611f066020830185611b2a565b611f136040830184611a1f565b949350505050565b5f81905092915050565b5f611f2f826118e7565b611f398185611f1b565b9350611f49818560208601611901565b80840191505092915050565b5f611f608285611f25565b9150611f6c8284611f25565b91508190509392505050565b7f4e487b71000000000000000000000000000000000000000000000000000000005f52601160045260245ffd5b5f611faf82611991565b91507fffffffffffffffffffffffffffffffffffffffffffffffffffffffffffffffff8203611fe157611fe0611f78565b5b600182019050919050565b5f81519050919050565b5f82825260208201905092915050565b5f61201082611fec565b61201a8185611ff6565b935061202a818560208601611901565b61203381611929565b840191505092915050565b5f6080820190506120515f830187611a1f565b61205e6020830186611a1f565b61206b6040830185611b2a565b818103606083015261207d8184612006565b905095945050505050565b5f815190506120968161185f565b92915050565b5f602082840312156120b1576120b061182c565b5b5f6120be84828501612088565b91505092915050565b5f819050815f5260205f209050919050565b5f6020601f8301049050919050565b5f82821b905092915050565b5f600883026121237fffffffffffffffffffffffffffffffffffffffffffffffffffffffffffffffff826120e8565b61212d86836120e8565b95508019841693508086168417925050509392505050565b5f819050919050565b5f61216861216361215e84611991565b612145565b611991565b9050919050565b5f819050919050565b6121818361214e565b61219561218d8261216f565b8484546120f4565b825550505050565b5f90565b6121a961219d565b6121b4818484612178565b505050565b5b818110156121d7576121cc5f826121a1565b6001810190506121ba565b5050565b601f82111561221c576121ed816120c7565b6121f6846120d9565b81016020851015612205578190505b612219612211856120d9565b8301826121b9565b50505b505050565b5f82821c905092915050565b5f61223c5f1984600802612221565b1980831691505092915050565b5f612254838361222d565b9150826002028217905092915050565b61226d826118e7565b67ffffffffffffffff81111561228657612285611bc2565b5b6122908254611eb6565b61229b8282856121db565b5f60209050601f8311600181146122cc575f84156122ba578287015190505b6122c48582612249565b86555061232b565b601f1984166122da866120c7565b5f5b82811015612301578489015182556001820191506020850194506020810190506122dc565b8683101561231e578489015161231a601f89168261222d565b8355505b6001600288020188555050505b505050505050565b5f6040820190506123465f830185611a1f565b6123536020830184611b2a565b9392505050565b7f4e487b71000000000000000000000000000000000000000000000000000000005f52601260045260245ffdfea26469706673582212206c08b6f155102e7bb535732626934079a0078a06bbe20cd9cd0e6172a17a149064736f6c63430008150033",
  "immutableReferences": {},
  "source": "// SPDX-License-Identifier: MIT\r\n\r\npragma solidity ^0.8.21;\r\n\r\nimport \"@openzeppelin/contracts/token/ERC721/ERC721.sol\";\r\nimport \"@openzeppelin/contracts/token/ERC721/extensions/ERC721URIStorage.sol\";\r\n\r\ncontract NFT is ERC721URIStorage {\r\n    uint256 public _currentTokenId = 0;\r\n    address marketplaceContract;\r\n    event NFTMinted(uint256);\r\n\r\n    constructor(address _marketplaceContract) ERC721(\"Seckim\", \"MTKN\") {\r\n        marketplaceContract = _marketplaceContract;\r\n    }\r\n\r\n    function mint(string memory _tokenURI) public {\r\n        uint256 newTokenId = ++_currentTokenId;\r\n\r\n        _safeMint(msg.sender, newTokenId);\r\n        _setTokenURI(newTokenId, _tokenURI);\r\n\r\n        setApprovalForAll(marketplaceContract, true);\r\n\r\n        emit NFTMinted(newTokenId);\r\n    }\r\n\r\n    function getCurrentToken() public view returns (uint256) {\r\n        return _currentTokenId;\r\n    }\r\n}\r\n",
  "sourcePath": "C:\\repos\\nft-mkt-project\\marketplace\\contracts\\NFT.sol",
  "compiler": {
    "name": "solc",
    "version": "0.8.21+commit.d9974bed.Emscripten.clang"
  },
  "schemaVersion": "3.4.16",
  "updatedAt": "2023-12-25T12:31:50.473Z",
  "devdoc": {
    "errors": {
      "ERC721IncorrectOwner(address,uint256,address)": [
        {
          "details": "Indicates an error related to the ownership over a particular token. Used in transfers.",
          "params": {
            "owner": "Address of the current owner of a token.",
            "sender": "Address whose tokens are being transferred.",
            "tokenId": "Identifier number of a token."
          }
        }
      ],
      "ERC721InsufficientApproval(address,uint256)": [
        {
          "details": "Indicates a failure with the `operator`s approval. Used in transfers.",
          "params": {
            "operator": "Address that may be allowed to operate on tokens without being their owner.",
            "tokenId": "Identifier number of a token."
          }
        }
      ],
      "ERC721InvalidApprover(address)": [
        {
          "details": "Indicates a failure with the `approver` of a token to be approved. Used in approvals.",
          "params": {
            "approver": "Address initiating an approval operation."
          }
        }
      ],
      "ERC721InvalidOperator(address)": [
        {
          "details": "Indicates a failure with the `operator` to be approved. Used in approvals.",
          "params": {
            "operator": "Address that may be allowed to operate on tokens without being their owner."
          }
        }
      ],
      "ERC721InvalidOwner(address)": [
        {
          "details": "Indicates that an address can't be an owner. For example, `address(0)` is a forbidden owner in EIP-20. Used in balance queries.",
          "params": {
            "owner": "Address of the current owner of a token."
          }
        }
      ],
      "ERC721InvalidReceiver(address)": [
        {
          "details": "Indicates a failure with the token `receiver`. Used in transfers.",
          "params": {
            "receiver": "Address to which tokens are being transferred."
          }
        }
      ],
      "ERC721InvalidSender(address)": [
        {
          "details": "Indicates a failure with the token `sender`. Used in transfers.",
          "params": {
            "sender": "Address whose tokens are being transferred."
          }
        }
      ],
      "ERC721NonexistentToken(uint256)": [
        {
          "details": "Indicates a `tokenId` whose `owner` is the zero address.",
          "params": {
            "tokenId": "Identifier number of a token."
          }
        }
      ]
    },
    "events": {
      "Approval(address,address,uint256)": {
        "details": "Emitted when `owner` enables `approved` to manage the `tokenId` token."
      },
      "ApprovalForAll(address,address,bool)": {
        "details": "Emitted when `owner` enables or disables (`approved`) `operator` to manage all of its assets."
      },
      "BatchMetadataUpdate(uint256,uint256)": {
        "details": "This event emits when the metadata of a range of tokens is changed. So that the third-party platforms such as NFT market could timely update the images and related attributes of the NFTs."
      },
      "MetadataUpdate(uint256)": {
        "details": "This event emits when the metadata of a token is changed. So that the third-party platforms such as NFT market could timely update the images and related attributes of the NFT."
      },
      "Transfer(address,address,uint256)": {
        "details": "Emitted when `tokenId` token is transferred from `from` to `to`."
      }
    },
    "kind": "dev",
    "methods": {
      "approve(address,uint256)": {
        "details": "See {IERC721-approve}."
      },
      "balanceOf(address)": {
        "details": "See {IERC721-balanceOf}."
      },
      "getApproved(uint256)": {
        "details": "See {IERC721-getApproved}."
      },
      "isApprovedForAll(address,address)": {
        "details": "See {IERC721-isApprovedForAll}."
      },
      "name()": {
        "details": "See {IERC721Metadata-name}."
      },
      "ownerOf(uint256)": {
        "details": "See {IERC721-ownerOf}."
      },
      "safeTransferFrom(address,address,uint256)": {
        "details": "See {IERC721-safeTransferFrom}."
      },
      "safeTransferFrom(address,address,uint256,bytes)": {
        "details": "See {IERC721-safeTransferFrom}."
      },
      "setApprovalForAll(address,bool)": {
        "details": "See {IERC721-setApprovalForAll}."
      },
      "supportsInterface(bytes4)": {
        "details": "See {IERC165-supportsInterface}"
      },
      "symbol()": {
        "details": "See {IERC721Metadata-symbol}."
      },
      "tokenURI(uint256)": {
        "details": "See {IERC721Metadata-tokenURI}."
      },
      "transferFrom(address,address,uint256)": {
        "details": "See {IERC721-transferFrom}."
      }
    },
    "version": 1
  },
  "userdoc": {
    "kind": "user",
    "methods": {},
    "version": 1
  }
}