{
  "contractName": "NFTMarketplace",
  "abi": [
    {
      "inputs": [],
      "stateMutability": "nonpayable",
      "type": "constructor"
    },
    {
      "inputs": [],
      "name": "ReentrancyGuardReentrantCall",
      "type": "error"
    },
    {
      "anonymous": false,
      "inputs": [
        {
          "indexed": false,
          "internalType": "address",
          "name": "nftContract",
          "type": "address"
        },
        {
          "indexed": false,
          "internalType": "uint256",
          "name": "tokenId",
          "type": "uint256"
        },
        {
          "indexed": false,
          "internalType": "address",
          "name": "seller",
          "type": "address"
        },
        {
          "indexed": false,
          "internalType": "address",
          "name": "owner",
          "type": "address"
        },
        {
          "indexed": false,
          "internalType": "uint256",
          "name": "price",
          "type": "uint256"
        }
      ],
      "name": "NFTListed",
      "type": "event"
    },
    {
      "anonymous": false,
      "inputs": [
        {
          "indexed": false,
          "internalType": "address",
          "name": "nftContract",
          "type": "address"
        },
        {
          "indexed": false,
          "internalType": "uint256",
          "name": "tokenId",
          "type": "uint256"
        },
        {
          "indexed": false,
          "internalType": "address",
          "name": "seller",
          "type": "address"
        },
        {
          "indexed": false,
          "internalType": "address",
          "name": "owner",
          "type": "address"
        },
        {
          "indexed": false,
          "internalType": "uint256",
          "name": "price",
          "type": "uint256"
        }
      ],
      "name": "NFTSold",
      "type": "event"
    },
    {
      "inputs": [],
      "name": "LISTING_FEE",
      "outputs": [
        {
          "internalType": "uint256",
          "name": "",
          "type": "uint256"
        }
      ],
      "stateMutability": "view",
      "type": "function",
      "constant": true
    },
    {
      "inputs": [],
      "name": "_nftCount",
      "outputs": [
        {
          "internalType": "uint256",
          "name": "",
          "type": "uint256"
        }
      ],
      "stateMutability": "view",
      "type": "function",
      "constant": true
    },
    {
      "inputs": [],
      "name": "_nftsSold",
      "outputs": [
        {
          "internalType": "uint256",
          "name": "",
          "type": "uint256"
        }
      ],
      "stateMutability": "view",
      "type": "function",
      "constant": true
    },
    {
      "inputs": [
        {
          "internalType": "address",
          "name": "nftContract",
          "type": "address"
        },
        {
          "internalType": "uint256",
          "name": "tokenId",
          "type": "uint256"
        },
        {
          "internalType": "string",
          "name": "_name",
          "type": "string"
        },
        {
          "internalType": "string",
          "name": "_tokenURI",
          "type": "string"
        }
      ],
      "name": "listNFT",
      "outputs": [],
      "stateMutability": "payable",
      "type": "function",
      "payable": true
    },
    {
      "inputs": [
        {
          "internalType": "address",
          "name": "nftContract",
          "type": "address"
        },
        {
          "internalType": "uint256",
          "name": "tokenId",
          "type": "uint256"
        }
      ],
      "name": "buyNFT",
      "outputs": [],
      "stateMutability": "payable",
      "type": "function",
      "payable": true
    },
    {
      "inputs": [
        {
          "internalType": "address",
          "name": "nftContract",
          "type": "address"
        },
        {
          "internalType": "uint256",
          "name": "tokenId",
          "type": "uint256"
        }
      ],
      "name": "resellNFT",
      "outputs": [],
      "stateMutability": "payable",
      "type": "function",
      "payable": true
    },
    {
      "inputs": [],
      "name": "getListingFee",
      "outputs": [
        {
          "internalType": "uint256",
          "name": "",
          "type": "uint256"
        }
      ],
      "stateMutability": "view",
      "type": "function",
      "constant": true
    },
    {
      "inputs": [
        {
          "internalType": "uint256",
          "name": "_tokenId",
          "type": "uint256"
        }
      ],
      "name": "getTokenForId",
      "outputs": [
        {
          "components": [
            {
              "internalType": "address",
              "name": "nftContract",
              "type": "address"
            },
            {
              "internalType": "uint256",
              "name": "tokenId",
              "type": "uint256"
            },
            {
              "internalType": "address payable",
              "name": "seller",
              "type": "address"
            },
            {
              "internalType": "address payable",
              "name": "owner",
              "type": "address"
            },
            {
              "internalType": "string",
              "name": "tokenURI",
              "type": "string"
            },
            {
              "internalType": "string",
              "name": "name",
              "type": "string"
            },
            {
              "internalType": "uint256",
              "name": "price",
              "type": "uint256"
            },
            {
              "internalType": "bool",
              "name": "isListed",
              "type": "bool"
            }
          ],
          "internalType": "struct NFTMarketplace.Token",
          "name": "",
          "type": "tuple"
        }
      ],
      "stateMutability": "view",
      "type": "function",
      "constant": true
    },
    {
      "inputs": [],
      "name": "getMarketPlaceBalance",
      "outputs": [
        {
          "internalType": "uint256",
          "name": "",
          "type": "uint256"
        }
      ],
      "stateMutability": "view",
      "type": "function",
      "constant": true
    },
    {
      "inputs": [],
      "name": "getItemsCount",
      "outputs": [
        {
          "internalType": "uint256",
          "name": "",
          "type": "uint256"
        }
      ],
      "stateMutability": "view",
      "type": "function",
      "constant": true
    },
    {
      "inputs": [],
      "name": "getItemsSold",
      "outputs": [
        {
          "internalType": "uint256",
          "name": "",
          "type": "uint256"
        }
      ],
      "stateMutability": "view",
      "type": "function",
      "constant": true
    }
  ],
  "bytecode": "0x60806040525f6001555f600255655af3107a4000600355348015610021575f80fd5b5060015f819055503360045f6101000a81548173ffffffffffffffffffffffffffffffffffffffff021916908373ffffffffffffffffffffffffffffffffffffffff160217905550611aa5806100765f395ff3fe60806040526004361061009b575f3560e01c8063a82ba76f11610063578063a82ba76f14610175578063b4c49d0914610191578063b8fe6abe146101bb578063c4b15141146101e5578063d6cbb2021461020f578063dbcc7575146102395761009b565b80632444a8a61461009f5780632b86ae38146100db57806331824a4914610105578063512dd0201461012f5780639e1001b014610159575b5f80fd5b3480156100aa575f80fd5b506100c560048036038101906100c09190610f14565b610255565b6040516100d29190611105565b60405180910390f35b3480156100e6575f80fd5b506100ef6104cd565b6040516100fc9190611134565b60405180910390f35b348015610110575f80fd5b506101196104d3565b6040516101269190611134565b60405180910390f35b34801561013a575f80fd5b506101436104d9565b6040516101509190611134565b60405180910390f35b610173600480360381019061016e9190611177565b6104e2565b005b61018f600480360381019061018a9190611177565b6106eb565b005b34801561019c575f80fd5b506101a5610ac1565b6040516101b29190611134565b60405180910390f35b3480156101c6575f80fd5b506101cf610ac8565b6040516101dc9190611134565b60405180910390f35b3480156101f0575f80fd5b506101f9610ad1565b6040516102069190611134565b60405180910390f35b34801561021a575f80fd5b50610223610ada565b6040516102309190611134565b60405180910390f35b610253600480360381019061024e91906112e1565b610ae0565b005b61025d610e4d565b60055f8381526020019081526020015f20604051806101000160405290815f82015f9054906101000a900473ffffffffffffffffffffffffffffffffffffffff1673ffffffffffffffffffffffffffffffffffffffff1673ffffffffffffffffffffffffffffffffffffffff16815260200160018201548152602001600282015f9054906101000a900473ffffffffffffffffffffffffffffffffffffffff1673ffffffffffffffffffffffffffffffffffffffff1673ffffffffffffffffffffffffffffffffffffffff168152602001600382015f9054906101000a900473ffffffffffffffffffffffffffffffffffffffff1673ffffffffffffffffffffffffffffffffffffffff1673ffffffffffffffffffffffffffffffffffffffff168152602001600482018054610392906113aa565b80601f01602080910402602001604051908101604052809291908181526020018280546103be906113aa565b80156104095780601f106103e057610100808354040283529160200191610409565b820191905f5260205f20905b8154815290600101906020018083116103ec57829003601f168201915b50505050508152602001600582018054610422906113aa565b80601f016020809104026020016040519081016040528092919081815260200182805461044e906113aa565b80156104995780601f1061047057610100808354040283529160200191610499565b820191905f5260205f20905b81548152906001019060200180831161047c57829003601f168201915b5050505050815260200160068201548152602001600782015f9054906101000a900460ff1615151515815250509050919050565b60035481565b60015481565b5f600254905090565b6104ea610e00565b5f8273ffffffffffffffffffffffffffffffffffffffff16636352211e836040518263ffffffff1660e01b81526004016105249190611134565b602060405180830381865afa15801561053f573d5f803e3d5ffd5b505050506040513d601f19601f8201168201806040525081019061056391906113ee565b90505f60055f8481526020019081526020015f2090508373ffffffffffffffffffffffffffffffffffffffff166323b872dd833084600101546040518463ffffffff1660e01b81526004016105ba93929190611428565b5f604051808303815f87803b1580156105d1575f80fd5b505af11580156105e3573d5f803e3d5ffd5b5050505033816002015f6101000a81548173ffffffffffffffffffffffffffffffffffffffff021916908373ffffffffffffffffffffffffffffffffffffffff16021790555030816003015f6101000a81548173ffffffffffffffffffffffffffffffffffffffff021916908373ffffffffffffffffffffffffffffffffffffffff1602179055506001816007015f6101000a81548160ff02191690831515021790555060015f81546106959061148a565b919050819055507fa0c6c0d02d86fdacecbaa5fdf5894bab204e31a778250474108540733a9b8d19848433306003546040516106d59594939291906114b1565b60405180910390a150506106e7610e44565b5050565b6106f3610e00565b5f8273ffffffffffffffffffffffffffffffffffffffff16636352211e836040518263ffffffff1660e01b815260040161072d9190611134565b602060405180830381865afa158015610748573d5f803e3d5ffd5b505050506040513d601f19601f8201168201806040525081019061076c91906113ee565b90505f60055f8481526020019081526020015f20905080600601543410156107c9576040517f08c379a00000000000000000000000000000000000000000000000000000000081526004016107c090611582565b60405180910390fd5b5f339050816002015f9054906101000a900473ffffffffffffffffffffffffffffffffffffffff1673ffffffffffffffffffffffffffffffffffffffff166108fc3490811502906040515f60405180830381858888f19350505050158015610833573d5f803e3d5ffd5b508473ffffffffffffffffffffffffffffffffffffffff1663a22cb4658260016040518363ffffffff1660e01b81526004016108709291906115af565b5f604051808303815f87803b158015610887575f80fd5b505af1158015610899573d5f803e3d5ffd5b505050508473ffffffffffffffffffffffffffffffffffffffff1663095ea7b382866040518363ffffffff1660e01b81526004016108d89291906115d6565b5f604051808303815f87803b1580156108ef575f80fd5b505af1158015610901573d5f803e3d5ffd5b505050508473ffffffffffffffffffffffffffffffffffffffff166323b872dd848385600101546040518463ffffffff1660e01b815260040161094693929190611428565b5f604051808303815f87803b15801561095d575f80fd5b505af115801561096f573d5f803e3d5ffd5b5050505060045f9054906101000a900473ffffffffffffffffffffffffffffffffffffffff1673ffffffffffffffffffffffffffffffffffffffff166108fc60035490811502906040515f60405180830381858888f193505050501580156109d9573d5f803e3d5ffd5b5080826003015f6101000a81548173ffffffffffffffffffffffffffffffffffffffff021916908373ffffffffffffffffffffffffffffffffffffffff1602179055505f826007015f6101000a81548160ff02191690831515021790555060015f8154610a45906115fd565b919050819055507f16f1dbd97e6bf646d429ed186cce832f1f7fd9907814293b83181e9970ab7bd2858360010154846002015f9054906101000a900473ffffffffffffffffffffffffffffffffffffffff168434604051610aaa95949392919061169f565b60405180910390a1505050610abd610e44565b5050565b5f47905090565b5f600354905090565b5f600154905090565b60025481565b610ae8610e00565b5f3411610b2a576040517f08c379a0000000000000000000000000000000000000000000000000000000008152600401610b2190611760565b60405180910390fd5b6003543414610b6e576040517f08c379a0000000000000000000000000000000000000000000000000000000008152600401610b65906117ee565b60405180910390fd5b8373ffffffffffffffffffffffffffffffffffffffff166323b872dd3330866040518463ffffffff1660e01b8152600401610bab93929190611428565b5f604051808303815f87803b158015610bc2575f80fd5b505af1158015610bd4573d5f803e3d5ffd5b5050505060025f8154610be6906115fd565b919050819055506040518061010001604052808573ffffffffffffffffffffffffffffffffffffffff1681526020018481526020013373ffffffffffffffffffffffffffffffffffffffff1681526020013073ffffffffffffffffffffffffffffffffffffffff16815260200182815260200183815260200160035481526020016001151581525060055f8581526020019081526020015f205f820151815f015f6101000a81548173ffffffffffffffffffffffffffffffffffffffff021916908373ffffffffffffffffffffffffffffffffffffffff160217905550602082015181600101556040820151816002015f6101000a81548173ffffffffffffffffffffffffffffffffffffffff021916908373ffffffffffffffffffffffffffffffffffffffff1602179055506060820151816003015f6101000a81548173ffffffffffffffffffffffffffffffffffffffff021916908373ffffffffffffffffffffffffffffffffffffffff1602179055506080820151816004019081610d6e91906119a0565b5060a0820151816005019081610d8491906119a0565b5060c0820151816006015560e0820151816007015f6101000a81548160ff0219169083151502179055509050507fa0c6c0d02d86fdacecbaa5fdf5894bab204e31a778250474108540733a9b8d1984843330600354604051610dea9594939291906114b1565b60405180910390a1610dfa610e44565b50505050565b60025f5403610e3b576040517f3ee5aeb500000000000000000000000000000000000000000000000000000000815260040160405180910390fd5b60025f81905550565b60015f81905550565b6040518061010001604052805f73ffffffffffffffffffffffffffffffffffffffff1681526020015f81526020015f73ffffffffffffffffffffffffffffffffffffffff1681526020015f73ffffffffffffffffffffffffffffffffffffffff16815260200160608152602001606081526020015f81526020015f151581525090565b5f604051905090565b5f80fd5b5f80fd5b5f819050919050565b610ef381610ee1565b8114610efd575f80fd5b50565b5f81359050610f0e81610eea565b92915050565b5f60208284031215610f2957610f28610ed9565b5b5f610f3684828501610f00565b91505092915050565b5f73ffffffffffffffffffffffffffffffffffffffff82169050919050565b5f610f6882610f3f565b9050919050565b610f7881610f5e565b82525050565b610f8781610ee1565b82525050565b5f610f9782610f3f565b9050919050565b610fa781610f8d565b82525050565b5f81519050919050565b5f82825260208201905092915050565b5f5b83811015610fe4578082015181840152602081019050610fc9565b5f8484015250505050565b5f601f19601f8301169050919050565b5f61100982610fad565b6110138185610fb7565b9350611023818560208601610fc7565b61102c81610fef565b840191505092915050565b5f8115159050919050565b61104b81611037565b82525050565b5f61010083015f8301516110675f860182610f6f565b50602083015161107a6020860182610f7e565b50604083015161108d6040860182610f9e565b5060608301516110a06060860182610f9e565b50608083015184820360808601526110b88282610fff565b91505060a083015184820360a08601526110d28282610fff565b91505060c08301516110e760c0860182610f7e565b5060e08301516110fa60e0860182611042565b508091505092915050565b5f6020820190508181035f83015261111d8184611051565b905092915050565b61112e81610ee1565b82525050565b5f6020820190506111475f830184611125565b92915050565b61115681610f5e565b8114611160575f80fd5b50565b5f813590506111718161114d565b92915050565b5f806040838503121561118d5761118c610ed9565b5b5f61119a85828601611163565b92505060206111ab85828601610f00565b9150509250929050565b5f80fd5b5f80fd5b7f4e487b71000000000000000000000000000000000000000000000000000000005f52604160045260245ffd5b6111f382610fef565b810181811067ffffffffffffffff82111715611212576112116111bd565b5b80604052505050565b5f611224610ed0565b905061123082826111ea565b919050565b5f67ffffffffffffffff82111561124f5761124e6111bd565b5b61125882610fef565b9050602081019050919050565b828183375f83830152505050565b5f61128561128084611235565b61121b565b9050828152602081018484840111156112a1576112a06111b9565b5b6112ac848285611265565b509392505050565b5f82601f8301126112c8576112c76111b5565b5b81356112d8848260208601611273565b91505092915050565b5f805f80608085870312156112f9576112f8610ed9565b5b5f61130687828801611163565b945050602061131787828801610f00565b935050604085013567ffffffffffffffff81111561133857611337610edd565b5b611344878288016112b4565b925050606085013567ffffffffffffffff81111561136557611364610edd565b5b611371878288016112b4565b91505092959194509250565b7f4e487b71000000000000000000000000000000000000000000000000000000005f52602260045260245ffd5b5f60028204905060018216806113c157607f821691505b6020821081036113d4576113d361137d565b5b50919050565b5f815190506113e88161114d565b92915050565b5f6020828403121561140357611402610ed9565b5b5f611410848285016113da565b91505092915050565b61142281610f5e565b82525050565b5f60608201905061143b5f830186611419565b6114486020830185611419565b6114556040830184611125565b949350505050565b7f4e487b71000000000000000000000000000000000000000000000000000000005f52601160045260245ffd5b5f61149482610ee1565b91505f82036114a6576114a561145d565b5b600182039050919050565b5f60a0820190506114c45f830188611419565b6114d16020830187611125565b6114de6040830186611419565b6114eb6060830185611419565b6114f86080830184611125565b9695505050505050565b5f82825260208201905092915050565b7f4e6f7420656e6f75676820657468657220746f20636f7665722074686520746f5f8201527f6b656e2070726963650000000000000000000000000000000000000000000000602082015250565b5f61156c602983611502565b915061157782611512565b604082019050919050565b5f6020820190508181035f83015261159981611560565b9050919050565b6115a981611037565b82525050565b5f6040820190506115c25f830185611419565b6115cf60208301846115a0565b9392505050565b5f6040820190506115e95f830185611419565b6115f66020830184611125565b9392505050565b5f61160782610ee1565b91507fffffffffffffffffffffffffffffffffffffffffffffffffffffffffffffffff82036116395761163861145d565b5b600182019050919050565b5f819050919050565b5f61166761166261165d84610f3f565b611644565b610f3f565b9050919050565b5f6116788261164d565b9050919050565b5f6116898261166e565b9050919050565b6116998161167f565b82525050565b5f60a0820190506116b25f830188611419565b6116bf6020830187611125565b6116cc6040830186611690565b6116d96060830185611419565b6116e66080830184611125565b9695505050505050565b7f5072696365206d757374206265206174206c6561737420302e303030312065745f8201527f6865722e00000000000000000000000000000000000000000000000000000000602082015250565b5f61174a602483611502565b9150611755826116f0565b604082019050919050565b5f6020820190508181035f8301526117778161173e565b9050919050565b7f6e6f7420656e6f75676820657468657220666f7220746865206c697374696e675f8201527f206665652e000000000000000000000000000000000000000000000000000000602082015250565b5f6117d8602583611502565b91506117e38261177e565b604082019050919050565b5f6020820190508181035f830152611805816117cc565b9050919050565b5f819050815f5260205f209050919050565b5f6020601f8301049050919050565b5f82821b905092915050565b5f600883026118687fffffffffffffffffffffffffffffffffffffffffffffffffffffffffffffffff8261182d565b611872868361182d565b95508019841693508086168417925050509392505050565b5f6118a461189f61189a84610ee1565b611644565b610ee1565b9050919050565b5f819050919050565b6118bd8361188a565b6118d16118c9826118ab565b848454611839565b825550505050565b5f90565b6118e56118d9565b6118f08184846118b4565b505050565b5b81811015611913576119085f826118dd565b6001810190506118f6565b5050565b601f821115611958576119298161180c565b6119328461181e565b81016020851015611941578190505b61195561194d8561181e565b8301826118f5565b50505b505050565b5f82821c905092915050565b5f6119785f198460080261195d565b1980831691505092915050565b5f6119908383611969565b9150826002028217905092915050565b6119a982610fad565b67ffffffffffffffff8111156119c2576119c16111bd565b5b6119cc82546113aa565b6119d7828285611917565b5f60209050601f831160018114611a08575f84156119f6578287015190505b611a008582611985565b865550611a67565b601f198416611a168661180c565b5f5b82811015611a3d57848901518255600182019150602085019450602081019050611a18565b86831015611a5a5784890151611a56601f891682611969565b8355505b6001600288020188555050505b50505050505056fea2646970667358221220cf41901513438173fc00a8e12149fff4cb5b27bae3fe1c0ce13f001182233bf664736f6c63430008160033",
  "immutableReferences": {},
  "source": "// SPDX-License-Identifier: MIT\r\npragma solidity ^0.8.21;\r\n\r\nimport \"@openzeppelin/contracts/token/ERC721/ERC721.sol\";\r\nimport \"@openzeppelin/contracts/utils/ReentrancyGuard.sol\";\r\n\r\ncontract NFTMarketplace is ReentrancyGuard {\r\n    uint256 public _nftsSold = 0;\r\n    uint256 public _nftCount = 0;\r\n    uint256 public LISTING_FEE = 0.0001 ether;\r\n    address payable private _marketOwner;\r\n    mapping(uint256 => Token) private _idToToken;\r\n\r\n    //\"https://ipfs.io/ipfs/QmSHyHr3kHKza3YRMfNz5HFatotSvLSa17YHJPzXJow1gU\",\r\n    //\"https://ipfs.io/ipfs/QmVqKAMsQRbNcVffMUwyzVHhcx37sx46qnFX6nnYqu1rb9\",\r\n    //\"https://ipfs.io/ipfs/QmcEd1R1Qq7M6G7NnHxDXYdiYtJAn9A2FGjg94Ku75HgUD\",\r\n    //\"https://ipfs.io/ipfs/QmUveY3PgfLD9TahrAEH2WieCG1PfU9Ybdq9WbZe8wXwvQ\",\r\n    //\"https://ipfs.io/ipfs/QmNeo34iQGsPLagnw1E6LjzfgmqVNLYftCymHKv11q9QsS\",\r\n    //\"https://ipfs.io/ipfs/QmXou1mty7AqhKzxrxC5C7Xqx8yVjVi8ZEqjacUpQQ89hD\",\r\n\r\n    struct Token {\r\n        address nftContract;\r\n        uint256 tokenId;\r\n        address payable seller;\r\n        address payable owner;\r\n        string tokenURI;\r\n        string name;\r\n        uint256 price;\r\n        bool isListed;\r\n    }\r\n\r\n    event NFTListed(\r\n        address nftContract,\r\n        uint256 tokenId,\r\n        address seller,\r\n        address owner,\r\n        uint256 price\r\n    );\r\n    event NFTSold(\r\n        address nftContract,\r\n        uint256 tokenId,\r\n        address seller,\r\n        address owner,\r\n        uint256 price\r\n    );\r\n\r\n    constructor() {\r\n        _marketOwner = payable(msg.sender);\r\n    }\r\n\r\n    // List the NFT on the marketplace\r\n    function listNFT(\r\n        address nftContract,\r\n        uint256 tokenId,\r\n        string memory _name,\r\n        string memory _tokenURI\r\n    ) public payable nonReentrant {\r\n        require(msg.value > 0, \"Price must be at least 0.0001 ether.\");\r\n        require(\r\n            msg.value == LISTING_FEE,\r\n            \"not enough ether for the listing fee.\"\r\n        );\r\n\r\n        IERC721(nftContract).transferFrom(msg.sender, address(this), tokenId);\r\n\r\n        ++_nftCount;\r\n\r\n        _idToToken[tokenId] = Token(\r\n            nftContract,\r\n            tokenId,\r\n            payable(msg.sender),\r\n            payable(address(this)),\r\n            _tokenURI,\r\n            _name,\r\n            LISTING_FEE,\r\n            true\r\n        );\r\n\r\n        emit NFTListed(\r\n            nftContract,\r\n            tokenId,\r\n            msg.sender,\r\n            address(this),\r\n            LISTING_FEE\r\n        );\r\n    }\r\n\r\n    // Buy an NFT\r\n    function buyNFT(\r\n        address nftContract,\r\n        uint256 tokenId\r\n    ) public payable nonReentrant {\r\n        address owner = IERC721(nftContract).ownerOf(tokenId);\r\n        Token storage nft = _idToToken[tokenId];\r\n\r\n        require(\r\n            msg.value >= nft.price,\r\n            \"Not enough ether to cover the token price\"\r\n        );\r\n\r\n        address buyer = payable(msg.sender);\r\n        payable(nft.seller).transfer(msg.value);\r\n        IERC721(nftContract).setApprovalForAll(buyer, true);\r\n        IERC721(nftContract).approve(buyer, tokenId);\r\n        IERC721(nftContract).transferFrom(owner, buyer, nft.tokenId);\r\n\r\n        _marketOwner.transfer(LISTING_FEE);\r\n        nft.owner = payable(buyer);\r\n        nft.isListed = false;\r\n\r\n        ++_nftsSold;\r\n\r\n        emit NFTSold(nftContract, nft.tokenId, nft.seller, buyer, msg.value);\r\n    }\r\n\r\n    // Resell an NFT purchased from the marketplace\r\n    function resellNFT(\r\n        address nftContract,\r\n        uint256 tokenId\r\n    ) public payable nonReentrant {\r\n        address owner = IERC721(nftContract).ownerOf(tokenId);\r\n        Token storage nft = _idToToken[tokenId];\r\n\r\n        IERC721(nftContract).transferFrom(owner, address(this), nft.tokenId);\r\n        nft.seller = payable(msg.sender);\r\n        nft.owner = payable(address(this));\r\n        nft.isListed = true;\r\n\r\n        --_nftsSold;\r\n\r\n        emit NFTListed(\r\n            nftContract,\r\n            tokenId,\r\n            msg.sender,\r\n            address(this),\r\n            LISTING_FEE\r\n        );\r\n    }\r\n\r\n    function getListingFee() public view returns (uint256) {\r\n        return LISTING_FEE;\r\n    }\r\n\r\n    function getTokenForId(\r\n        uint256 _tokenId\r\n    ) public view returns (Token memory) {\r\n        return _idToToken[_tokenId];\r\n    }\r\n\r\n    function getMarketPlaceBalance() public view returns (uint256) {\r\n        //https://docs.soliditylang.org/en/develop/units-and-global-variables.html#address-related\r\n        return address(this).balance;\r\n    }\r\n\r\n    function getItemsCount() public view returns (uint256) {\r\n        return _nftCount;\r\n    }\r\n\r\n    function getItemsSold() public view returns (uint256) {\r\n        return _nftsSold;\r\n    }\r\n}\r\n",
  "sourcePath": "C:\\repos\\nft-mkt-project\\marketplace\\contracts\\Marketplace.sol",
  "compiler": {
    "name": "solc",
    "version": "0.8.22+commit.4fc1097e.Emscripten.clang"
  },
  "schemaVersion": "3.4.16",
  "updatedAt": "2023-12-28T14:57:52.125Z",
  "networkType": "ethereum",
  "devdoc": {
    "errors": {
      "ReentrancyGuardReentrantCall()": [
        {
          "details": "Unauthorized reentrant call."
        }
      ]
    },
    "kind": "dev",
    "methods": {},
    "version": 1
  },
  "userdoc": {
    "kind": "user",
    "methods": {},
    "version": 1
  }
}