{
  "contractName": "NFTMarketplace",
  "abi": [
    {
      "inputs": [],
      "stateMutability": "nonpayable",
      "type": "constructor"
    },
    {
      "inputs": [],
      "name": "ReentrancyGuardReentrantCall",
      "type": "error"
    },
    {
      "anonymous": false,
      "inputs": [
        {
          "indexed": false,
          "internalType": "address",
          "name": "nftContract",
          "type": "address"
        },
        {
          "indexed": false,
          "internalType": "uint256",
          "name": "tokenId",
          "type": "uint256"
        },
        {
          "indexed": false,
          "internalType": "address",
          "name": "seller",
          "type": "address"
        },
        {
          "indexed": false,
          "internalType": "address",
          "name": "owner",
          "type": "address"
        },
        {
          "indexed": false,
          "internalType": "uint256",
          "name": "price",
          "type": "uint256"
        }
      ],
      "name": "NFTListed",
      "type": "event"
    },
    {
      "anonymous": false,
      "inputs": [
        {
          "indexed": false,
          "internalType": "address",
          "name": "nftContract",
          "type": "address"
        },
        {
          "indexed": false,
          "internalType": "uint256",
          "name": "tokenId",
          "type": "uint256"
        },
        {
          "indexed": false,
          "internalType": "address",
          "name": "seller",
          "type": "address"
        },
        {
          "indexed": false,
          "internalType": "address",
          "name": "owner",
          "type": "address"
        },
        {
          "indexed": false,
          "internalType": "uint256",
          "name": "price",
          "type": "uint256"
        }
      ],
      "name": "NFTSold",
      "type": "event"
    },
    {
      "inputs": [],
      "name": "LISTING_FEE",
      "outputs": [
        {
          "internalType": "uint256",
          "name": "",
          "type": "uint256"
        }
      ],
      "stateMutability": "view",
      "type": "function"
    },
    {
      "inputs": [],
      "name": "_nftCount",
      "outputs": [
        {
          "internalType": "uint256",
          "name": "",
          "type": "uint256"
        }
      ],
      "stateMutability": "view",
      "type": "function"
    },
    {
      "inputs": [],
      "name": "_nftsSold",
      "outputs": [
        {
          "internalType": "uint256",
          "name": "",
          "type": "uint256"
        }
      ],
      "stateMutability": "view",
      "type": "function"
    },
    {
      "inputs": [
        {
          "internalType": "address",
          "name": "nftContract",
          "type": "address"
        },
        {
          "internalType": "uint256",
          "name": "tokenId",
          "type": "uint256"
        },
        {
          "internalType": "string",
          "name": "_name",
          "type": "string"
        },
        {
          "internalType": "string",
          "name": "_tokenURI",
          "type": "string"
        }
      ],
      "name": "listNFT",
      "outputs": [],
      "stateMutability": "payable",
      "type": "function"
    },
    {
      "inputs": [
        {
          "internalType": "address",
          "name": "nftContract",
          "type": "address"
        },
        {
          "internalType": "uint256",
          "name": "tokenId",
          "type": "uint256"
        }
      ],
      "name": "buyNFT",
      "outputs": [],
      "stateMutability": "payable",
      "type": "function"
    },
    {
      "inputs": [
        {
          "internalType": "address",
          "name": "nftContract",
          "type": "address"
        },
        {
          "internalType": "uint256",
          "name": "tokenId",
          "type": "uint256"
        }
      ],
      "name": "resellNFT",
      "outputs": [],
      "stateMutability": "payable",
      "type": "function"
    }
  ],
  "bytecode": "0x60806040525f6001555f600255655af3107a4000600355348015610021575f80fd5b5060015f819055503360045f6101000a81548173ffffffffffffffffffffffffffffffffffffffff021916908373ffffffffffffffffffffffffffffffffffffffff1602179055506114a1806100765f395ff3fe608060405260043610610054575f3560e01c80632b86ae381461005857806331824a49146100825780639e1001b0146100ac578063a82ba76f146100c8578063d6cbb202146100e4578063dbcc75751461010e575b5f80fd5b348015610063575f80fd5b5061006c61012a565b6040516100799190610aa0565b60405180910390f35b34801561008d575f80fd5b50610096610130565b6040516100a39190610aa0565b60405180910390f35b6100c660048036038101906100c19190610b4e565b610136565b005b6100e260048036038101906100dd9190610b4e565b61033f565b005b3480156100ef575f80fd5b506100f8610715565b6040516101059190610aa0565b60405180910390f35b61012860048036038101906101239190610cc8565b61071b565b005b60035481565b60015481565b61013e610a3b565b5f8273ffffffffffffffffffffffffffffffffffffffff16636352211e836040518263ffffffff1660e01b81526004016101789190610aa0565b602060405180830381865afa158015610193573d5f803e3d5ffd5b505050506040513d601f19601f820116820180604052508101906101b79190610d78565b90505f60055f8481526020019081526020015f2090508373ffffffffffffffffffffffffffffffffffffffff166323b872dd833084600101546040518463ffffffff1660e01b815260040161020e93929190610db2565b5f604051808303815f87803b158015610225575f80fd5b505af1158015610237573d5f803e3d5ffd5b5050505033816002015f6101000a81548173ffffffffffffffffffffffffffffffffffffffff021916908373ffffffffffffffffffffffffffffffffffffffff16021790555030816003015f6101000a81548173ffffffffffffffffffffffffffffffffffffffff021916908373ffffffffffffffffffffffffffffffffffffffff1602179055506001816007015f6101000a81548160ff02191690831515021790555060015f81546102e990610e14565b919050819055507fa0c6c0d02d86fdacecbaa5fdf5894bab204e31a778250474108540733a9b8d1984843330600354604051610329959493929190610e3b565b60405180910390a1505061033b610a7f565b5050565b610347610a3b565b5f8273ffffffffffffffffffffffffffffffffffffffff16636352211e836040518263ffffffff1660e01b81526004016103819190610aa0565b602060405180830381865afa15801561039c573d5f803e3d5ffd5b505050506040513d601f19601f820116820180604052508101906103c09190610d78565b90505f60055f8481526020019081526020015f209050806006015434101561041d576040517f08c379a000000000000000000000000000000000000000000000000000000000815260040161041490610f0c565b60405180910390fd5b5f339050816002015f9054906101000a900473ffffffffffffffffffffffffffffffffffffffff1673ffffffffffffffffffffffffffffffffffffffff166108fc3490811502906040515f60405180830381858888f19350505050158015610487573d5f803e3d5ffd5b508473ffffffffffffffffffffffffffffffffffffffff1663a22cb4658260016040518363ffffffff1660e01b81526004016104c4929190610f44565b5f604051808303815f87803b1580156104db575f80fd5b505af11580156104ed573d5f803e3d5ffd5b505050508473ffffffffffffffffffffffffffffffffffffffff1663095ea7b382866040518363ffffffff1660e01b815260040161052c929190610f6b565b5f604051808303815f87803b158015610543575f80fd5b505af1158015610555573d5f803e3d5ffd5b505050508473ffffffffffffffffffffffffffffffffffffffff166323b872dd848385600101546040518463ffffffff1660e01b815260040161059a93929190610db2565b5f604051808303815f87803b1580156105b1575f80fd5b505af11580156105c3573d5f803e3d5ffd5b5050505060045f9054906101000a900473ffffffffffffffffffffffffffffffffffffffff1673ffffffffffffffffffffffffffffffffffffffff166108fc60035490811502906040515f60405180830381858888f1935050505015801561062d573d5f803e3d5ffd5b5080826003015f6101000a81548173ffffffffffffffffffffffffffffffffffffffff021916908373ffffffffffffffffffffffffffffffffffffffff1602179055505f826007015f6101000a81548160ff02191690831515021790555060015f815461069990610f92565b919050819055507f16f1dbd97e6bf646d429ed186cce832f1f7fd9907814293b83181e9970ab7bd2858360010154846002015f9054906101000a900473ffffffffffffffffffffffffffffffffffffffff1684346040516106fe959493929190611034565b60405180910390a1505050610711610a7f565b5050565b60025481565b610723610a3b565b5f3411610765576040517f08c379a000000000000000000000000000000000000000000000000000000000815260040161075c906110f5565b60405180910390fd5b60035434146107a9576040517f08c379a00000000000000000000000000000000000000000000000000000000081526004016107a090611183565b60405180910390fd5b8373ffffffffffffffffffffffffffffffffffffffff166323b872dd3330866040518463ffffffff1660e01b81526004016107e693929190610db2565b5f604051808303815f87803b1580156107fd575f80fd5b505af115801561080f573d5f803e3d5ffd5b5050505060025f815461082190610f92565b919050819055506040518061010001604052808573ffffffffffffffffffffffffffffffffffffffff1681526020018481526020013373ffffffffffffffffffffffffffffffffffffffff1681526020013073ffffffffffffffffffffffffffffffffffffffff16815260200182815260200183815260200160035481526020016001151581525060055f8581526020019081526020015f205f820151815f015f6101000a81548173ffffffffffffffffffffffffffffffffffffffff021916908373ffffffffffffffffffffffffffffffffffffffff160217905550602082015181600101556040820151816002015f6101000a81548173ffffffffffffffffffffffffffffffffffffffff021916908373ffffffffffffffffffffffffffffffffffffffff1602179055506060820151816003015f6101000a81548173ffffffffffffffffffffffffffffffffffffffff021916908373ffffffffffffffffffffffffffffffffffffffff16021790555060808201518160040190816109a9919061139c565b5060a08201518160050190816109bf919061139c565b5060c0820151816006015560e0820151816007015f6101000a81548160ff0219169083151502179055509050507fa0c6c0d02d86fdacecbaa5fdf5894bab204e31a778250474108540733a9b8d1984843330600354604051610a25959493929190610e3b565b60405180910390a1610a35610a7f565b50505050565b60025f5403610a76576040517f3ee5aeb500000000000000000000000000000000000000000000000000000000815260040160405180910390fd5b60025f81905550565b60015f81905550565b5f819050919050565b610a9a81610a88565b82525050565b5f602082019050610ab35f830184610a91565b92915050565b5f604051905090565b5f80fd5b5f80fd5b5f73ffffffffffffffffffffffffffffffffffffffff82169050919050565b5f610af382610aca565b9050919050565b610b0381610ae9565b8114610b0d575f80fd5b50565b5f81359050610b1e81610afa565b92915050565b610b2d81610a88565b8114610b37575f80fd5b50565b5f81359050610b4881610b24565b92915050565b5f8060408385031215610b6457610b63610ac2565b5b5f610b7185828601610b10565b9250506020610b8285828601610b3a565b9150509250929050565b5f80fd5b5f80fd5b5f601f19601f8301169050919050565b7f4e487b71000000000000000000000000000000000000000000000000000000005f52604160045260245ffd5b610bda82610b94565b810181811067ffffffffffffffff82111715610bf957610bf8610ba4565b5b80604052505050565b5f610c0b610ab9565b9050610c178282610bd1565b919050565b5f67ffffffffffffffff821115610c3657610c35610ba4565b5b610c3f82610b94565b9050602081019050919050565b828183375f83830152505050565b5f610c6c610c6784610c1c565b610c02565b905082815260208101848484011115610c8857610c87610b90565b5b610c93848285610c4c565b509392505050565b5f82601f830112610caf57610cae610b8c565b5b8135610cbf848260208601610c5a565b91505092915050565b5f805f8060808587031215610ce057610cdf610ac2565b5b5f610ced87828801610b10565b9450506020610cfe87828801610b3a565b935050604085013567ffffffffffffffff811115610d1f57610d1e610ac6565b5b610d2b87828801610c9b565b925050606085013567ffffffffffffffff811115610d4c57610d4b610ac6565b5b610d5887828801610c9b565b91505092959194509250565b5f81519050610d7281610afa565b92915050565b5f60208284031215610d8d57610d8c610ac2565b5b5f610d9a84828501610d64565b91505092915050565b610dac81610ae9565b82525050565b5f606082019050610dc55f830186610da3565b610dd26020830185610da3565b610ddf6040830184610a91565b949350505050565b7f4e487b71000000000000000000000000000000000000000000000000000000005f52601160045260245ffd5b5f610e1e82610a88565b91505f8203610e3057610e2f610de7565b5b600182039050919050565b5f60a082019050610e4e5f830188610da3565b610e5b6020830187610a91565b610e686040830186610da3565b610e756060830185610da3565b610e826080830184610a91565b9695505050505050565b5f82825260208201905092915050565b7f4e6f7420656e6f75676820657468657220746f20636f7665722074686520746f5f8201527f6b656e2070726963650000000000000000000000000000000000000000000000602082015250565b5f610ef6602983610e8c565b9150610f0182610e9c565b604082019050919050565b5f6020820190508181035f830152610f2381610eea565b9050919050565b5f8115159050919050565b610f3e81610f2a565b82525050565b5f604082019050610f575f830185610da3565b610f646020830184610f35565b9392505050565b5f604082019050610f7e5f830185610da3565b610f8b6020830184610a91565b9392505050565b5f610f9c82610a88565b91507fffffffffffffffffffffffffffffffffffffffffffffffffffffffffffffffff8203610fce57610fcd610de7565b5b600182019050919050565b5f819050919050565b5f610ffc610ff7610ff284610aca565b610fd9565b610aca565b9050919050565b5f61100d82610fe2565b9050919050565b5f61101e82611003565b9050919050565b61102e81611014565b82525050565b5f60a0820190506110475f830188610da3565b6110546020830187610a91565b6110616040830186611025565b61106e6060830185610da3565b61107b6080830184610a91565b9695505050505050565b7f5072696365206d757374206265206174206c6561737420302e303030312065745f8201527f6865722e00000000000000000000000000000000000000000000000000000000602082015250565b5f6110df602483610e8c565b91506110ea82611085565b604082019050919050565b5f6020820190508181035f83015261110c816110d3565b9050919050565b7f6e6f7420656e6f75676820657468657220666f7220746865206c697374696e675f8201527f206665652e000000000000000000000000000000000000000000000000000000602082015250565b5f61116d602583610e8c565b915061117882611113565b604082019050919050565b5f6020820190508181035f83015261119a81611161565b9050919050565b5f81519050919050565b7f4e487b71000000000000000000000000000000000000000000000000000000005f52602260045260245ffd5b5f60028204905060018216806111ef57607f821691505b602082108103611202576112016111ab565b5b50919050565b5f819050815f5260205f209050919050565b5f6020601f8301049050919050565b5f82821b905092915050565b5f600883026112647fffffffffffffffffffffffffffffffffffffffffffffffffffffffffffffffff82611229565b61126e8683611229565b95508019841693508086168417925050509392505050565b5f6112a061129b61129684610a88565b610fd9565b610a88565b9050919050565b5f819050919050565b6112b983611286565b6112cd6112c5826112a7565b848454611235565b825550505050565b5f90565b6112e16112d5565b6112ec8184846112b0565b505050565b5b8181101561130f576113045f826112d9565b6001810190506112f2565b5050565b601f8211156113545761132581611208565b61132e8461121a565b8101602085101561133d578190505b6113516113498561121a565b8301826112f1565b50505b505050565b5f82821c905092915050565b5f6113745f1984600802611359565b1980831691505092915050565b5f61138c8383611365565b9150826002028217905092915050565b6113a5826111a1565b67ffffffffffffffff8111156113be576113bd610ba4565b5b6113c882546111d8565b6113d3828285611313565b5f60209050601f831160018114611404575f84156113f2578287015190505b6113fc8582611381565b865550611463565b601f19841661141286611208565b5f5b8281101561143957848901518255600182019150602085019450602081019050611414565b868310156114565784890151611452601f891682611365565b8355505b6001600288020188555050505b50505050505056fea2646970667358221220ff1431eda5b691a334e1b1d20834707a95da623269b0c07c1cb96ac31d71c49864736f6c63430008150033",
  "immutableReferences": {},
  "source": "// SPDX-License-Identifier: MIT\r\npragma solidity ^0.8.21;\r\n\r\nimport \"@openzeppelin/contracts/token/ERC721/ERC721.sol\";\r\nimport \"@openzeppelin/contracts/utils/ReentrancyGuard.sol\";\r\n\r\ncontract NFTMarketplace is ReentrancyGuard {\r\n    uint256 public _nftsSold = 0;\r\n    uint256 public _nftCount = 0;\r\n    uint256 public LISTING_FEE = 0.0001 ether;\r\n    address payable private _marketOwner;\r\n    mapping(uint256 => Token) private _idToToken;\r\n\r\n    //\"https://ipfs.io/ipfs/QmSHyHr3kHKza3YRMfNz5HFatotSvLSa17YHJPzXJow1gU\",\r\n    //\"https://ipfs.io/ipfs/QmVqKAMsQRbNcVffMUwyzVHhcx37sx46qnFX6nnYqu1rb9\",\r\n    //\"https://ipfs.io/ipfs/QmcEd1R1Qq7M6G7NnHxDXYdiYtJAn9A2FGjg94Ku75HgUD\",\r\n    //\"https://ipfs.io/ipfs/QmUveY3PgfLD9TahrAEH2WieCG1PfU9Ybdq9WbZe8wXwvQ\",\r\n    //\"https://ipfs.io/ipfs/QmNeo34iQGsPLagnw1E6LjzfgmqVNLYftCymHKv11q9QsS\",\r\n    //\"https://ipfs.io/ipfs/QmXou1mty7AqhKzxrxC5C7Xqx8yVjVi8ZEqjacUpQQ89hD\",\r\n\r\n    struct Token {\r\n        address nftContract;\r\n        uint256 tokenId;\r\n        address payable seller;\r\n        address payable owner;\r\n        string tokenURI;\r\n        string name;\r\n        uint256 price;\r\n        bool isListed;\r\n    }\r\n\r\n    event NFTListed(\r\n        address nftContract,\r\n        uint256 tokenId,\r\n        address seller,\r\n        address owner,\r\n        uint256 price\r\n    );\r\n    event NFTSold(\r\n        address nftContract,\r\n        uint256 tokenId,\r\n        address seller,\r\n        address owner,\r\n        uint256 price\r\n    );\r\n\r\n    constructor() {\r\n        _marketOwner = payable(msg.sender);\r\n    }\r\n\r\n    // List the NFT on the marketplace\r\n    function listNFT(\r\n        address nftContract,\r\n        uint256 tokenId,\r\n        string memory _name,\r\n        string memory _tokenURI\r\n    ) public payable nonReentrant {\r\n        require(msg.value > 0, \"Price must be at least 0.0001 ether.\");\r\n        require(\r\n            msg.value == LISTING_FEE,\r\n            \"not enough ether for the listing fee.\"\r\n        );\r\n\r\n        IERC721(nftContract).transferFrom(msg.sender, address(this), tokenId);\r\n\r\n        ++_nftCount;\r\n\r\n        _idToToken[tokenId] = Token(\r\n            nftContract,\r\n            tokenId,\r\n            payable(msg.sender),\r\n            payable(address(this)),\r\n            _tokenURI,\r\n            _name,\r\n            LISTING_FEE,\r\n            true\r\n        );\r\n\r\n        emit NFTListed(\r\n            nftContract,\r\n            tokenId,\r\n            msg.sender,\r\n            address(this),\r\n            LISTING_FEE\r\n        );\r\n    }\r\n\r\n    // Buy an NFT\r\n    function buyNFT(\r\n        address nftContract,\r\n        uint256 tokenId\r\n    ) public payable nonReentrant {\r\n        address owner = IERC721(nftContract).ownerOf(tokenId);\r\n        Token storage nft = _idToToken[tokenId];\r\n\r\n        require(\r\n            msg.value >= nft.price,\r\n            \"Not enough ether to cover the token price\"\r\n        );\r\n\r\n        address buyer = payable(msg.sender);\r\n        payable(nft.seller).transfer(msg.value);\r\n        IERC721(nftContract).setApprovalForAll(buyer, true);\r\n        IERC721(nftContract).approve(buyer, tokenId);\r\n        IERC721(nftContract).transferFrom(owner, buyer, nft.tokenId);\r\n\r\n        _marketOwner.transfer(LISTING_FEE);\r\n        nft.owner = payable(buyer);\r\n        nft.isListed = false;\r\n\r\n        ++_nftsSold;\r\n\r\n        emit NFTSold(nftContract, nft.tokenId, nft.seller, buyer, msg.value);\r\n    }\r\n\r\n    // Resell an NFT purchased from the marketplace\r\n    function resellNFT(\r\n        address nftContract,\r\n        uint256 tokenId\r\n    ) public payable nonReentrant {\r\n        address owner = IERC721(nftContract).ownerOf(tokenId);\r\n        Token storage nft = _idToToken[tokenId];\r\n\r\n        IERC721(nftContract).transferFrom(owner, address(this), nft.tokenId);\r\n        nft.seller = payable(msg.sender);\r\n        nft.owner = payable(address(this));\r\n        nft.isListed = true;\r\n\r\n        --_nftsSold;\r\n\r\n        emit NFTListed(\r\n            nftContract,\r\n            tokenId,\r\n            msg.sender,\r\n            address(this),\r\n            LISTING_FEE\r\n        );\r\n    }\r\n}\r\n",
  "sourcePath": "C:\\repos\\nft-mkt-project\\marketplace\\contracts\\Marketplace.sol",
  "compiler": {
    "name": "solc",
    "version": "0.8.21+commit.d9974bed.Emscripten.clang"
  },
  "schemaVersion": "3.4.16",
  "updatedAt": "2023-12-25T12:31:50.470Z",
  "devdoc": {
    "errors": {
      "ReentrancyGuardReentrantCall()": [
        {
          "details": "Unauthorized reentrant call."
        }
      ]
    },
    "kind": "dev",
    "methods": {},
    "version": 1
  },
  "userdoc": {
    "kind": "user",
    "methods": {},
    "version": 1
  }
}